{
  "_format": "hh-sol-artifact-1",
  "contractName": "NewTestToken",
  "sourceName": "contracts/NewTestToken.sol",
  "abi": [
    {
      "inputs": [],
      "stateMutability": "nonpayable",
      "type": "constructor"
    },
    {
      "anonymous": false,
      "inputs": [
        {
          "indexed": true,
          "internalType": "address",
          "name": "owner",
          "type": "address"
        },
        {
          "indexed": true,
          "internalType": "address",
          "name": "spender",
          "type": "address"
        },
        {
          "indexed": false,
          "internalType": "uint256",
          "name": "value",
          "type": "uint256"
        }
      ],
      "name": "Approval",
      "type": "event"
    },
    {
      "anonymous": false,
      "inputs": [
        {
          "indexed": true,
          "internalType": "bytes32",
          "name": "role",
          "type": "bytes32"
        },
        {
          "indexed": true,
          "internalType": "bytes32",
          "name": "previousAdminRole",
          "type": "bytes32"
        },
        {
          "indexed": true,
          "internalType": "bytes32",
          "name": "newAdminRole",
          "type": "bytes32"
        }
      ],
      "name": "RoleAdminChanged",
      "type": "event"
    },
    {
      "anonymous": false,
      "inputs": [
        {
          "indexed": true,
          "internalType": "bytes32",
          "name": "role",
          "type": "bytes32"
        },
        {
          "indexed": true,
          "internalType": "address",
          "name": "account",
          "type": "address"
        },
        {
          "indexed": true,
          "internalType": "address",
          "name": "sender",
          "type": "address"
        }
      ],
      "name": "RoleGranted",
      "type": "event"
    },
    {
      "anonymous": false,
      "inputs": [
        {
          "indexed": true,
          "internalType": "bytes32",
          "name": "role",
          "type": "bytes32"
        },
        {
          "indexed": true,
          "internalType": "address",
          "name": "account",
          "type": "address"
        },
        {
          "indexed": true,
          "internalType": "address",
          "name": "sender",
          "type": "address"
        }
      ],
      "name": "RoleRevoked",
      "type": "event"
    },
    {
      "anonymous": false,
      "inputs": [
        {
          "indexed": true,
          "internalType": "address",
          "name": "from",
          "type": "address"
        },
        {
          "indexed": true,
          "internalType": "address",
          "name": "to",
          "type": "address"
        },
        {
          "indexed": false,
          "internalType": "uint256",
          "name": "value",
          "type": "uint256"
        }
      ],
      "name": "Transfer",
      "type": "event"
    },
    {
      "inputs": [],
      "name": "DEFAULT_ADMIN_ROLE",
      "outputs": [
        {
          "internalType": "bytes32",
          "name": "",
          "type": "bytes32"
        }
      ],
      "stateMutability": "view",
      "type": "function"
    },
    {
      "inputs": [],
      "name": "MINTER_ROLE",
      "outputs": [
        {
          "internalType": "bytes32",
          "name": "",
          "type": "bytes32"
        }
      ],
      "stateMutability": "view",
      "type": "function"
    },
    {
      "inputs": [
        {
          "internalType": "address",
          "name": "owner",
          "type": "address"
        },
        {
          "internalType": "address",
          "name": "spender",
          "type": "address"
        }
      ],
      "name": "allowance",
      "outputs": [
        {
          "internalType": "uint256",
          "name": "",
          "type": "uint256"
        }
      ],
      "stateMutability": "view",
      "type": "function"
    },
    {
      "inputs": [
        {
          "internalType": "address",
          "name": "spender",
          "type": "address"
        },
        {
          "internalType": "uint256",
          "name": "amount",
          "type": "uint256"
        }
      ],
      "name": "approve",
      "outputs": [
        {
          "internalType": "bool",
          "name": "",
          "type": "bool"
        }
      ],
      "stateMutability": "nonpayable",
      "type": "function"
    },
    {
      "inputs": [
        {
          "internalType": "address",
          "name": "account",
          "type": "address"
        }
      ],
      "name": "balanceOf",
      "outputs": [
        {
          "internalType": "uint256",
          "name": "",
          "type": "uint256"
        }
      ],
      "stateMutability": "view",
      "type": "function"
    },
    {
      "inputs": [
        {
          "internalType": "uint256",
          "name": "amount",
          "type": "uint256"
        }
      ],
      "name": "burn",
      "outputs": [],
      "stateMutability": "nonpayable",
      "type": "function"
    },
    {
      "inputs": [
        {
          "internalType": "address",
          "name": "account",
          "type": "address"
        },
        {
          "internalType": "uint256",
          "name": "amount",
          "type": "uint256"
        }
      ],
      "name": "burnFrom",
      "outputs": [],
      "stateMutability": "nonpayable",
      "type": "function"
    },
    {
      "inputs": [],
      "name": "decimals",
      "outputs": [
        {
          "internalType": "uint8",
          "name": "",
          "type": "uint8"
        }
      ],
      "stateMutability": "view",
      "type": "function"
    },
    {
      "inputs": [
        {
          "internalType": "address",
          "name": "spender",
          "type": "address"
        },
        {
          "internalType": "uint256",
          "name": "subtractedValue",
          "type": "uint256"
        }
      ],
      "name": "decreaseAllowance",
      "outputs": [
        {
          "internalType": "bool",
          "name": "",
          "type": "bool"
        }
      ],
      "stateMutability": "nonpayable",
      "type": "function"
    },
    {
      "inputs": [
        {
          "internalType": "bytes32",
          "name": "role",
          "type": "bytes32"
        }
      ],
      "name": "getRoleAdmin",
      "outputs": [
        {
          "internalType": "bytes32",
          "name": "",
          "type": "bytes32"
        }
      ],
      "stateMutability": "view",
      "type": "function"
    },
    {
      "inputs": [
        {
          "internalType": "bytes32",
          "name": "role",
          "type": "bytes32"
        },
        {
          "internalType": "address",
          "name": "account",
          "type": "address"
        }
      ],
      "name": "grantRole",
      "outputs": [],
      "stateMutability": "nonpayable",
      "type": "function"
    },
    {
      "inputs": [
        {
          "internalType": "bytes32",
          "name": "role",
          "type": "bytes32"
        },
        {
          "internalType": "address",
          "name": "account",
          "type": "address"
        }
      ],
      "name": "hasRole",
      "outputs": [
        {
          "internalType": "bool",
          "name": "",
          "type": "bool"
        }
      ],
      "stateMutability": "view",
      "type": "function"
    },
    {
      "inputs": [
        {
          "internalType": "address",
          "name": "spender",
          "type": "address"
        },
        {
          "internalType": "uint256",
          "name": "addedValue",
          "type": "uint256"
        }
      ],
      "name": "increaseAllowance",
      "outputs": [
        {
          "internalType": "bool",
          "name": "",
          "type": "bool"
        }
      ],
      "stateMutability": "nonpayable",
      "type": "function"
    },
    {
      "inputs": [
        {
          "internalType": "address",
          "name": "to",
          "type": "address"
        },
        {
          "internalType": "uint256",
          "name": "amount",
          "type": "uint256"
        }
      ],
      "name": "mint",
      "outputs": [],
      "stateMutability": "nonpayable",
      "type": "function"
    },
    {
      "inputs": [],
      "name": "name",
      "outputs": [
        {
          "internalType": "string",
          "name": "",
          "type": "string"
        }
      ],
      "stateMutability": "view",
      "type": "function"
    },
    {
      "inputs": [
        {
          "internalType": "bytes32",
          "name": "role",
          "type": "bytes32"
        },
        {
          "internalType": "address",
          "name": "account",
          "type": "address"
        }
      ],
      "name": "renounceRole",
      "outputs": [],
      "stateMutability": "nonpayable",
      "type": "function"
    },
    {
      "inputs": [
        {
          "internalType": "bytes32",
          "name": "role",
          "type": "bytes32"
        },
        {
          "internalType": "address",
          "name": "account",
          "type": "address"
        }
      ],
      "name": "revokeRole",
      "outputs": [],
      "stateMutability": "nonpayable",
      "type": "function"
    },
    {
      "inputs": [
        {
          "internalType": "bytes4",
          "name": "interfaceId",
          "type": "bytes4"
        }
      ],
      "name": "supportsInterface",
      "outputs": [
        {
          "internalType": "bool",
          "name": "",
          "type": "bool"
        }
      ],
      "stateMutability": "view",
      "type": "function"
    },
    {
      "inputs": [],
      "name": "symbol",
      "outputs": [
        {
          "internalType": "string",
          "name": "",
          "type": "string"
        }
      ],
      "stateMutability": "view",
      "type": "function"
    },
    {
      "inputs": [],
      "name": "totalSupply",
      "outputs": [
        {
          "internalType": "uint256",
          "name": "",
          "type": "uint256"
        }
      ],
      "stateMutability": "view",
      "type": "function"
    },
    {
      "inputs": [
        {
          "internalType": "address",
          "name": "to",
          "type": "address"
        },
        {
          "internalType": "uint256",
          "name": "amount",
          "type": "uint256"
        }
      ],
      "name": "transfer",
      "outputs": [
        {
          "internalType": "bool",
          "name": "",
          "type": "bool"
        }
      ],
      "stateMutability": "nonpayable",
      "type": "function"
    },
    {
      "inputs": [
        {
          "internalType": "address",
          "name": "from",
          "type": "address"
        },
        {
          "internalType": "address",
          "name": "to",
          "type": "address"
        },
        {
          "internalType": "uint256",
          "name": "amount",
          "type": "uint256"
        }
      ],
      "name": "transferFrom",
      "outputs": [
        {
          "internalType": "bool",
          "name": "",
          "type": "bool"
        }
      ],
      "stateMutability": "nonpayable",
      "type": "function"
    }
  ],
  "bytecode": "0x60806040523480156200001157600080fd5b506040518060400160405280600581526020017f456c6a6f6e0000000000000000000000000000000000000000000000000000008152506040518060400160405280600281526020017f535500000000000000000000000000000000000000000000000000000000000081525081600390805190602001906200009692919062000430565b508060049080519060200190620000af92919062000430565b505050620000f233620000c76200013f60201b60201c565b600a620000d5919062000620565b63075bcd15620000e691906200075d565b6200014860201b60201c565b620001076000801b33620002c160201b60201c565b620001397f9f2df0fed2c77648de5860a4cc508cd0818c85b8b8a1ab4ceeef8d981c8956a633620002c160201b60201c565b6200089f565b60006012905090565b600073ffffffffffffffffffffffffffffffffffffffff168273ffffffffffffffffffffffffffffffffffffffff161415620001bb576040517f08c379a0000000000000000000000000000000000000000000000000000000008152600401620001b29062000518565b60405180910390fd5b620001cf60008383620003b360201b60201c565b8060026000828254620001e3919062000568565b92505081905550806000808473ffffffffffffffffffffffffffffffffffffffff1673ffffffffffffffffffffffffffffffffffffffff16815260200190815260200160002060008282546200023a919062000568565b925050819055508173ffffffffffffffffffffffffffffffffffffffff16600073ffffffffffffffffffffffffffffffffffffffff167fddf252ad1be2c89b69c2b068fc378daa952ba7f163c4a11628f55a4df523b3ef83604051620002a191906200053a565b60405180910390a3620002bd60008383620003b860201b60201c565b5050565b620002d38282620003bd60201b60201c565b620003af5760016005600084815260200190815260200160002060000160008373ffffffffffffffffffffffffffffffffffffffff1673ffffffffffffffffffffffffffffffffffffffff16815260200190815260200160002060006101000a81548160ff021916908315150217905550620003546200042860201b60201c565b73ffffffffffffffffffffffffffffffffffffffff168173ffffffffffffffffffffffffffffffffffffffff16837f2f8788117e7eff1d82e926ec794901d17c78024a50270940304540a733656f0d60405160405180910390a45b5050565b505050565b505050565b60006005600084815260200190815260200160002060000160008373ffffffffffffffffffffffffffffffffffffffff1673ffffffffffffffffffffffffffffffffffffffff16815260200190815260200160002060009054906101000a900460ff16905092915050565b600033905090565b8280546200043e90620007d5565b90600052602060002090601f016020900481019282620004625760008555620004ae565b82601f106200047d57805160ff1916838001178555620004ae565b82800160010185558215620004ae579182015b82811115620004ad57825182559160200191906001019062000490565b5b509050620004bd9190620004c1565b5090565b5b80821115620004dc576000816000905550600101620004c2565b5090565b6000620004ef601f8362000557565b9150620004fc8262000876565b602082019050919050565b6200051281620007be565b82525050565b600060208201905081810360008301526200053381620004e0565b9050919050565b600060208201905062000551600083018462000507565b92915050565b600082825260208201905092915050565b60006200057582620007be565b91506200058283620007be565b9250827fffffffffffffffffffffffffffffffffffffffffffffffffffffffffffffffff03821115620005ba57620005b96200080b565b5b828201905092915050565b6000808291508390505b60018511156200061757808604811115620005ef57620005ee6200080b565b5b6001851615620005ff5780820291505b80810290506200060f8562000869565b9450620005cf565b94509492505050565b60006200062d82620007be565b91506200063a83620007c8565b9250620006697fffffffffffffffffffffffffffffffffffffffffffffffffffffffffffffffff848462000671565b905092915050565b60008262000683576001905062000756565b8162000693576000905062000756565b8160018114620006ac5760028114620006b757620006ed565b600191505062000756565b60ff841115620006cc57620006cb6200080b565b5b8360020a915084821115620006e657620006e56200080b565b5b5062000756565b5060208310610133831016604e8410600b8410161715620007275782820a9050838111156200072157620007206200080b565b5b62000756565b620007368484846001620005c5565b9250905081840481111562000750576200074f6200080b565b5b81810290505b9392505050565b60006200076a82620007be565b91506200077783620007be565b9250817fffffffffffffffffffffffffffffffffffffffffffffffffffffffffffffffff0483118215151615620007b357620007b26200080b565b5b828202905092915050565b6000819050919050565b600060ff82169050919050565b60006002820490506001821680620007ee57607f821691505b602082108114156200080557620008046200083a565b5b50919050565b7f4e487b7100000000000000000000000000000000000000000000000000000000600052601160045260246000fd5b7f4e487b7100000000000000000000000000000000000000000000000000000000600052602260045260246000fd5b60008160011c9050919050565b7f45524332303a206d696e7420746f20746865207a65726f206164647265737300600082015250565b61259480620008af6000396000f3fe608060405234801561001057600080fd5b50600436106101425760003560e01c806342966c68116100b8578063a217fddf1161007c578063a217fddf1461039b578063a457c2d7146103b9578063a9059cbb146103e9578063d539139314610419578063d547741f14610437578063dd62ed3e1461045357610142565b806342966c68146102e557806370a082311461030157806379cc67901461033157806391d148541461034d57806395d89b411461037d57610142565b8063248a9ca31161010a578063248a9ca3146102135780632f2ff15d14610243578063313ce5671461025f57806336568abe1461027d578063395093511461029957806340c10f19146102c957610142565b806301ffc9a71461014757806306fdde0314610177578063095ea7b31461019557806318160ddd146101c557806323b872dd146101e3575b600080fd5b610161600480360381019061015c91906119b0565b610483565b60405161016e9190611ccc565b60405180910390f35b61017f6104fd565b60405161018c9190611d02565b60405180910390f35b6101af60048036038101906101aa919061190f565b61058f565b6040516101bc9190611ccc565b60405180910390f35b6101cd6105b2565b6040516101da9190611ea4565b60405180910390f35b6101fd60048036038101906101f891906118c0565b6105bc565b60405161020a9190611ccc565b60405180910390f35b61022d6004803603810190610228919061194b565b6105eb565b60405161023a9190611ce7565b60405180910390f35b61025d60048036038101906102589190611974565b61060b565b005b61026761062c565b6040516102749190611ebf565b60405180910390f35b61029760048036038101906102929190611974565b610635565b005b6102b360048036038101906102ae919061190f565b6106b8565b6040516102c09190611ccc565b60405180910390f35b6102e360048036038101906102de919061190f565b6106ef565b005b6102ff60048036038101906102fa91906119d9565b610728565b005b61031b6004803603810190610316919061185b565b61073c565b6040516103289190611ea4565b60405180910390f35b61034b6004803603810190610346919061190f565b610784565b005b61036760048036038101906103629190611974565b6107a4565b6040516103749190611ccc565b60405180910390f35b61038561080f565b6040516103929190611d02565b60405180910390f35b6103a36108a1565b6040516103b09190611ce7565b60405180910390f35b6103d360048036038101906103ce919061190f565b6108a8565b6040516103e09190611ccc565b60405180910390f35b61040360048036038101906103fe919061190f565b61091f565b6040516104109190611ccc565b60405180910390f35b610421610942565b60405161042e9190611ce7565b60405180910390f35b610451600480360381019061044c9190611974565b610966565b005b61046d60048036038101906104689190611884565b610987565b60405161047a9190611ea4565b60405180910390f35b60007f7965db0b000000000000000000000000000000000000000000000000000000007bffffffffffffffffffffffffffffffffffffffffffffffffffffffff1916827bffffffffffffffffffffffffffffffffffffffffffffffffffffffff191614806104f657506104f582610a0e565b5b9050919050565b60606003805461050c906120cd565b80601f0160208091040260200160405190810160405280929190818152602001828054610538906120cd565b80156105855780601f1061055a57610100808354040283529160200191610585565b820191906000526020600020905b81548152906001019060200180831161056857829003601f168201915b5050505050905090565b60008061059a610a78565b90506105a7818585610a80565b600191505092915050565b6000600254905090565b6000806105c7610a78565b90506105d4858285610c4b565b6105df858585610cd7565b60019150509392505050565b600060056000838152602001908152602001600020600101549050919050565b610614826105eb565b61061d81610f58565b6106278383610f6c565b505050565b60006012905090565b61063d610a78565b73ffffffffffffffffffffffffffffffffffffffff168173ffffffffffffffffffffffffffffffffffffffff16146106aa576040517f08c379a00000000000000000000000000000000000000000000000000000000081526004016106a190611e64565b60405180910390fd5b6106b4828261104d565b5050565b6000806106c3610a78565b90506106e48185856106d58589610987565b6106df9190611f01565b610a80565b600191505092915050565b7f9f2df0fed2c77648de5860a4cc508cd0818c85b8b8a1ab4ceeef8d981c8956a661071981610f58565b610723838361112f565b505050565b610739610733610a78565b8261128f565b50565b60008060008373ffffffffffffffffffffffffffffffffffffffff1673ffffffffffffffffffffffffffffffffffffffff168152602001908152602001600020549050919050565b61079682610790610a78565b83610c4b565b6107a0828261128f565b5050565b60006005600084815260200190815260200160002060000160008373ffffffffffffffffffffffffffffffffffffffff1673ffffffffffffffffffffffffffffffffffffffff16815260200190815260200160002060009054906101000a900460ff16905092915050565b60606004805461081e906120cd565b80601f016020809104026020016040519081016040528092919081815260200182805461084a906120cd565b80156108975780601f1061086c57610100808354040283529160200191610897565b820191906000526020600020905b81548152906001019060200180831161087a57829003601f168201915b5050505050905090565b6000801b81565b6000806108b3610a78565b905060006108c18286610987565b905083811015610906576040517f08c379a00000000000000000000000000000000000000000000000000000000081526004016108fd90611e44565b60405180910390fd5b6109138286868403610a80565b60019250505092915050565b60008061092a610a78565b9050610937818585610cd7565b600191505092915050565b7f9f2df0fed2c77648de5860a4cc508cd0818c85b8b8a1ab4ceeef8d981c8956a681565b61096f826105eb565b61097881610f58565b610982838361104d565b505050565b6000600160008473ffffffffffffffffffffffffffffffffffffffff1673ffffffffffffffffffffffffffffffffffffffff16815260200190815260200160002060008373ffffffffffffffffffffffffffffffffffffffff1673ffffffffffffffffffffffffffffffffffffffff16815260200190815260200160002054905092915050565b60007f01ffc9a7000000000000000000000000000000000000000000000000000000007bffffffffffffffffffffffffffffffffffffffffffffffffffffffff1916827bffffffffffffffffffffffffffffffffffffffffffffffffffffffff1916149050919050565b600033905090565b600073ffffffffffffffffffffffffffffffffffffffff168373ffffffffffffffffffffffffffffffffffffffff161415610af0576040517f08c379a0000000000000000000000000000000000000000000000000000000008152600401610ae790611e24565b60405180910390fd5b600073ffffffffffffffffffffffffffffffffffffffff168273ffffffffffffffffffffffffffffffffffffffff161415610b60576040517f08c379a0000000000000000000000000000000000000000000000000000000008152600401610b5790611d84565b60405180910390fd5b80600160008573ffffffffffffffffffffffffffffffffffffffff1673ffffffffffffffffffffffffffffffffffffffff16815260200190815260200160002060008473ffffffffffffffffffffffffffffffffffffffff1673ffffffffffffffffffffffffffffffffffffffff168152602001908152602001600020819055508173ffffffffffffffffffffffffffffffffffffffff168373ffffffffffffffffffffffffffffffffffffffff167f8c5be1e5ebec7d5bd14f71427d1e84f3dd0314c0f7b2291e5b200ac8c7c3b92583604051610c3e9190611ea4565b60405180910390a3505050565b6000610c578484610987565b90507fffffffffffffffffffffffffffffffffffffffffffffffffffffffffffffffff8114610cd15781811015610cc3576040517f08c379a0000000000000000000000000000000000000000000000000000000008152600401610cba90611da4565b60405180910390fd5b610cd08484848403610a80565b5b50505050565b600073ffffffffffffffffffffffffffffffffffffffff168373ffffffffffffffffffffffffffffffffffffffff161415610d47576040517f08c379a0000000000000000000000000000000000000000000000000000000008152600401610d3e90611e04565b60405180910390fd5b600073ffffffffffffffffffffffffffffffffffffffff168273ffffffffffffffffffffffffffffffffffffffff161415610db7576040517f08c379a0000000000000000000000000000000000000000000000000000000008152600401610dae90611d44565b60405180910390fd5b610dc2838383611466565b60008060008573ffffffffffffffffffffffffffffffffffffffff1673ffffffffffffffffffffffffffffffffffffffff16815260200190815260200160002054905081811015610e48576040517f08c379a0000000000000000000000000000000000000000000000000000000008152600401610e3f90611dc4565b60405180910390fd5b8181036000808673ffffffffffffffffffffffffffffffffffffffff1673ffffffffffffffffffffffffffffffffffffffff16815260200190815260200160002081905550816000808573ffffffffffffffffffffffffffffffffffffffff1673ffffffffffffffffffffffffffffffffffffffff1681526020019081526020016000206000828254610edb9190611f01565b925050819055508273ffffffffffffffffffffffffffffffffffffffff168473ffffffffffffffffffffffffffffffffffffffff167fddf252ad1be2c89b69c2b068fc378daa952ba7f163c4a11628f55a4df523b3ef84604051610f3f9190611ea4565b60405180910390a3610f5284848461146b565b50505050565b610f6981610f64610a78565b611470565b50565b610f7682826107a4565b6110495760016005600084815260200190815260200160002060000160008373ffffffffffffffffffffffffffffffffffffffff1673ffffffffffffffffffffffffffffffffffffffff16815260200190815260200160002060006101000a81548160ff021916908315150217905550610fee610a78565b73ffffffffffffffffffffffffffffffffffffffff168173ffffffffffffffffffffffffffffffffffffffff16837f2f8788117e7eff1d82e926ec794901d17c78024a50270940304540a733656f0d60405160405180910390a45b5050565b61105782826107a4565b1561112b5760006005600084815260200190815260200160002060000160008373ffffffffffffffffffffffffffffffffffffffff1673ffffffffffffffffffffffffffffffffffffffff16815260200190815260200160002060006101000a81548160ff0219169083151502179055506110d0610a78565b73ffffffffffffffffffffffffffffffffffffffff168173ffffffffffffffffffffffffffffffffffffffff16837ff6391f5c32d9c69d2a47ea670b442974b53935d1edc7fd64eb21e047a839171b60405160405180910390a45b5050565b600073ffffffffffffffffffffffffffffffffffffffff168273ffffffffffffffffffffffffffffffffffffffff16141561119f576040517f08c379a000000000000000000000000000000000000000000000000000000000815260040161119690611e84565b60405180910390fd5b6111ab60008383611466565b80600260008282546111bd9190611f01565b92505081905550806000808473ffffffffffffffffffffffffffffffffffffffff1673ffffffffffffffffffffffffffffffffffffffff16815260200190815260200160002060008282546112129190611f01565b925050819055508173ffffffffffffffffffffffffffffffffffffffff16600073ffffffffffffffffffffffffffffffffffffffff167fddf252ad1be2c89b69c2b068fc378daa952ba7f163c4a11628f55a4df523b3ef836040516112779190611ea4565b60405180910390a361128b6000838361146b565b5050565b600073ffffffffffffffffffffffffffffffffffffffff168273ffffffffffffffffffffffffffffffffffffffff1614156112ff576040517f08c379a00000000000000000000000000000000000000000000000000000000081526004016112f690611de4565b60405180910390fd5b61130b82600083611466565b60008060008473ffffffffffffffffffffffffffffffffffffffff1673ffffffffffffffffffffffffffffffffffffffff16815260200190815260200160002054905081811015611391576040517f08c379a000000000000000000000000000000000000000000000000000000000815260040161138890611d64565b60405180910390fd5b8181036000808573ffffffffffffffffffffffffffffffffffffffff1673ffffffffffffffffffffffffffffffffffffffff1681526020019081526020016000208190555081600260008282546113e89190611fb1565b92505081905550600073ffffffffffffffffffffffffffffffffffffffff168373ffffffffffffffffffffffffffffffffffffffff167fddf252ad1be2c89b69c2b068fc378daa952ba7f163c4a11628f55a4df523b3ef8460405161144d9190611ea4565b60405180910390a36114618360008461146b565b505050565b505050565b505050565b61147a82826107a4565b6115095761149f8173ffffffffffffffffffffffffffffffffffffffff16601461150d565b6114ad8360001c602061150d565b6040516020016114be929190611c92565b6040516020818303038152906040526040517f08c379a00000000000000000000000000000000000000000000000000000000081526004016115009190611d02565b60405180910390fd5b5050565b6060600060028360026115209190611f57565b61152a9190611f01565b67ffffffffffffffff811115611569577f4e487b7100000000000000000000000000000000000000000000000000000000600052604160045260246000fd5b6040519080825280601f01601f19166020018201604052801561159b5781602001600182028036833780820191505090505b5090507f3000000000000000000000000000000000000000000000000000000000000000816000815181106115f9577f4e487b7100000000000000000000000000000000000000000000000000000000600052603260045260246000fd5b60200101907effffffffffffffffffffffffffffffffffffffffffffffffffffffffffffff1916908160001a9053507f780000000000000000000000000000000000000000000000000000000000000081600181518110611683577f4e487b7100000000000000000000000000000000000000000000000000000000600052603260045260246000fd5b60200101907effffffffffffffffffffffffffffffffffffffffffffffffffffffffffffff1916908160001a905350600060018460026116c39190611f57565b6116cd9190611f01565b90505b60018111156117b9577f3031323334353637383961626364656600000000000000000000000000000000600f861660108110611735577f4e487b7100000000000000000000000000000000000000000000000000000000600052603260045260246000fd5b1a60f81b828281518110611772577f4e487b7100000000000000000000000000000000000000000000000000000000600052603260045260246000fd5b60200101907effffffffffffffffffffffffffffffffffffffffffffffffffffffffffffff1916908160001a905350600485901c9450806117b2906120a3565b90506116d0565b50600084146117fd576040517f08c379a00000000000000000000000000000000000000000000000000000000081526004016117f490611d24565b60405180910390fd5b8091505092915050565b60008135905061181681612502565b92915050565b60008135905061182b81612519565b92915050565b60008135905061184081612530565b92915050565b60008135905061185581612547565b92915050565b60006020828403121561186d57600080fd5b600061187b84828501611807565b91505092915050565b6000806040838503121561189757600080fd5b60006118a585828601611807565b92505060206118b685828601611807565b9150509250929050565b6000806000606084860312156118d557600080fd5b60006118e386828701611807565b93505060206118f486828701611807565b925050604061190586828701611846565b9150509250925092565b6000806040838503121561192257600080fd5b600061193085828601611807565b925050602061194185828601611846565b9150509250929050565b60006020828403121561195d57600080fd5b600061196b8482850161181c565b91505092915050565b6000806040838503121561198757600080fd5b60006119958582860161181c565b92505060206119a685828601611807565b9150509250929050565b6000602082840312156119c257600080fd5b60006119d084828501611831565b91505092915050565b6000602082840312156119eb57600080fd5b60006119f984828501611846565b91505092915050565b611a0b81611ff7565b82525050565b611a1a81612003565b82525050565b6000611a2b82611eda565b611a358185611ee5565b9350611a45818560208601612070565b611a4e8161215d565b840191505092915050565b6000611a6482611eda565b611a6e8185611ef6565b9350611a7e818560208601612070565b80840191505092915050565b6000611a97602083611ee5565b9150611aa28261216e565b602082019050919050565b6000611aba602383611ee5565b9150611ac582612197565b604082019050919050565b6000611add602283611ee5565b9150611ae8826121e6565b604082019050919050565b6000611b00602283611ee5565b9150611b0b82612235565b604082019050919050565b6000611b23601d83611ee5565b9150611b2e82612284565b602082019050919050565b6000611b46602683611ee5565b9150611b51826122ad565b604082019050919050565b6000611b69602183611ee5565b9150611b74826122fc565b604082019050919050565b6000611b8c602583611ee5565b9150611b978261234b565b604082019050919050565b6000611baf602483611ee5565b9150611bba8261239a565b604082019050919050565b6000611bd2601783611ef6565b9150611bdd826123e9565b601782019050919050565b6000611bf5602583611ee5565b9150611c0082612412565b604082019050919050565b6000611c18601183611ef6565b9150611c2382612461565b601182019050919050565b6000611c3b602f83611ee5565b9150611c468261248a565b604082019050919050565b6000611c5e601f83611ee5565b9150611c69826124d9565b602082019050919050565b611c7d81612059565b82525050565b611c8c81612063565b82525050565b6000611c9d82611bc5565b9150611ca98285611a59565b9150611cb482611c0b565b9150611cc08284611a59565b91508190509392505050565b6000602082019050611ce16000830184611a02565b92915050565b6000602082019050611cfc6000830184611a11565b92915050565b60006020820190508181036000830152611d1c8184611a20565b905092915050565b60006020820190508181036000830152611d3d81611a8a565b9050919050565b60006020820190508181036000830152611d5d81611aad565b9050919050565b60006020820190508181036000830152611d7d81611ad0565b9050919050565b60006020820190508181036000830152611d9d81611af3565b9050919050565b60006020820190508181036000830152611dbd81611b16565b9050919050565b60006020820190508181036000830152611ddd81611b39565b9050919050565b60006020820190508181036000830152611dfd81611b5c565b9050919050565b60006020820190508181036000830152611e1d81611b7f565b9050919050565b60006020820190508181036000830152611e3d81611ba2565b9050919050565b60006020820190508181036000830152611e5d81611be8565b9050919050565b60006020820190508181036000830152611e7d81611c2e565b9050919050565b60006020820190508181036000830152611e9d81611c51565b9050919050565b6000602082019050611eb96000830184611c74565b92915050565b6000602082019050611ed46000830184611c83565b92915050565b600081519050919050565b600082825260208201905092915050565b600081905092915050565b6000611f0c82612059565b9150611f1783612059565b9250827fffffffffffffffffffffffffffffffffffffffffffffffffffffffffffffffff03821115611f4c57611f4b6120ff565b5b828201905092915050565b6000611f6282612059565b9150611f6d83612059565b9250817fffffffffffffffffffffffffffffffffffffffffffffffffffffffffffffffff0483118215151615611fa657611fa56120ff565b5b828202905092915050565b6000611fbc82612059565b9150611fc783612059565b925082821015611fda57611fd96120ff565b5b828203905092915050565b6000611ff082612039565b9050919050565b60008115159050919050565b6000819050919050565b60007fffffffff0000000000000000000000000000000000000000000000000000000082169050919050565b600073ffffffffffffffffffffffffffffffffffffffff82169050919050565b6000819050919050565b600060ff82169050919050565b60005b8381101561208e578082015181840152602081019050612073565b8381111561209d576000848401525b50505050565b60006120ae82612059565b915060008214156120c2576120c16120ff565b5b600182039050919050565b600060028204905060018216806120e557607f821691505b602082108114156120f9576120f861212e565b5b50919050565b7f4e487b7100000000000000000000000000000000000000000000000000000000600052601160045260246000fd5b7f4e487b7100000000000000000000000000000000000000000000000000000000600052602260045260246000fd5b6000601f19601f8301169050919050565b7f537472696e67733a20686578206c656e67746820696e73756666696369656e74600082015250565b7f45524332303a207472616e7366657220746f20746865207a65726f206164647260008201527f6573730000000000000000000000000000000000000000000000000000000000602082015250565b7f45524332303a206275726e20616d6f756e7420657863656564732062616c616e60008201527f6365000000000000000000000000000000000000000000000000000000000000602082015250565b7f45524332303a20617070726f766520746f20746865207a65726f20616464726560008201527f7373000000000000000000000000000000000000000000000000000000000000602082015250565b7f45524332303a20696e73756666696369656e7420616c6c6f77616e6365000000600082015250565b7f45524332303a207472616e7366657220616d6f756e742065786365656473206260008201527f616c616e63650000000000000000000000000000000000000000000000000000602082015250565b7f45524332303a206275726e2066726f6d20746865207a65726f2061646472657360008201527f7300000000000000000000000000000000000000000000000000000000000000602082015250565b7f45524332303a207472616e736665722066726f6d20746865207a65726f20616460008201527f6472657373000000000000000000000000000000000000000000000000000000602082015250565b7f45524332303a20617070726f76652066726f6d20746865207a65726f2061646460008201527f7265737300000000000000000000000000000000000000000000000000000000602082015250565b7f416363657373436f6e74726f6c3a206163636f756e7420000000000000000000600082015250565b7f45524332303a2064656372656173656420616c6c6f77616e63652062656c6f7760008201527f207a65726f000000000000000000000000000000000000000000000000000000602082015250565b7f206973206d697373696e6720726f6c6520000000000000000000000000000000600082015250565b7f416363657373436f6e74726f6c3a2063616e206f6e6c792072656e6f756e636560008201527f20726f6c657320666f722073656c660000000000000000000000000000000000602082015250565b7f45524332303a206d696e7420746f20746865207a65726f206164647265737300600082015250565b61250b81611fe5565b811461251657600080fd5b50565b61252281612003565b811461252d57600080fd5b50565b6125398161200d565b811461254457600080fd5b50565b61255081612059565b811461255b57600080fd5b5056fea2646970667358221220a895b0aeb579f5240b8790573526bc2de99e8263fef6efc7f0357ccc943ca5dc64736f6c63430008040033",
  "linkReferences": {},
  "deployedLinkReferences": {}
}